{
  "abi": [
    {
      "inputs": [
        {
          "internalType": "uint256",
          "name": "biddingTime",
          "type": "uint256"
        },
        {
          "internalType": "uint256",
          "name": "revealTime",
          "type": "uint256"
        },
        {
          "internalType": "address payable",
          "name": "beneficiaryAddress",
          "type": "address"
        }
      ],
      "stateMutability": "nonpayable",
      "type": "constructor"
    },
    {
      "inputs": [],
      "name": "AuctionEndAlreadyCalled",
      "type": "error"
    },
    {
      "inputs": [
        {
          "internalType": "uint256",
          "name": "time",
          "type": "uint256"
        }
      ],
      "name": "TooEarly",
      "type": "error"
    },
    {
      "inputs": [
        {
          "internalType": "uint256",
          "name": "time",
          "type": "uint256"
        }
      ],
      "name": "TooLate",
      "type": "error"
    },
    {
      "anonymous": false,
      "inputs": [
        {
          "indexed": false,
          "internalType": "address",
          "name": "winner",
          "type": "address"
        },
        {
          "indexed": false,
          "internalType": "uint256",
          "name": "highestBid",
          "type": "uint256"
        }
      ],
      "name": "AuctionEnded",
      "type": "event"
    },
    {
      "inputs": [],
      "name": "auctionEnd",
      "outputs": [],
      "stateMutability": "nonpayable",
      "type": "function"
    },
    {
      "inputs": [],
      "name": "beneficiary",
      "outputs": [
        {
          "internalType": "address payable",
          "name": "",
          "type": "address"
        }
      ],
      "stateMutability": "view",
      "type": "function"
    },
    {
      "inputs": [
        {
          "internalType": "bytes32",
          "name": "blindedBid",
          "type": "bytes32"
        }
      ],
      "name": "bid",
      "outputs": [],
      "stateMutability": "payable",
      "type": "function"
    },
    {
      "inputs": [],
      "name": "biddingEnd",
      "outputs": [
        {
          "internalType": "uint256",
          "name": "",
          "type": "uint256"
        }
      ],
      "stateMutability": "view",
      "type": "function"
    },
    {
      "inputs": [
        {
          "internalType": "address",
          "name": "",
          "type": "address"
        },
        {
          "internalType": "uint256",
          "name": "",
          "type": "uint256"
        }
      ],
      "name": "bids",
      "outputs": [
        {
          "internalType": "bytes32",
          "name": "blindedBid",
          "type": "bytes32"
        },
        {
          "internalType": "uint256",
          "name": "deposit",
          "type": "uint256"
        }
      ],
      "stateMutability": "view",
      "type": "function"
    },
    {
      "inputs": [],
      "name": "ended",
      "outputs": [
        {
          "internalType": "bool",
          "name": "",
          "type": "bool"
        }
      ],
      "stateMutability": "view",
      "type": "function"
    },
    {
      "inputs": [],
      "name": "highestBid",
      "outputs": [
        {
          "internalType": "uint256",
          "name": "",
          "type": "uint256"
        }
      ],
      "stateMutability": "view",
      "type": "function"
    },
    {
      "inputs": [],
      "name": "highestBidder",
      "outputs": [
        {
          "internalType": "address",
          "name": "",
          "type": "address"
        }
      ],
      "stateMutability": "view",
      "type": "function"
    },
    {
      "inputs": [
        {
          "internalType": "uint256[]",
          "name": "values",
          "type": "uint256[]"
        },
        {
          "internalType": "bool[]",
          "name": "fakes",
          "type": "bool[]"
        },
        {
          "internalType": "bytes32[]",
          "name": "secrets",
          "type": "bytes32[]"
        }
      ],
      "name": "reveal",
      "outputs": [],
      "stateMutability": "nonpayable",
      "type": "function"
    },
    {
      "inputs": [],
      "name": "revealEnd",
      "outputs": [
        {
          "internalType": "uint256",
          "name": "",
          "type": "uint256"
        }
      ],
      "stateMutability": "view",
      "type": "function"
    },
    {
      "inputs": [],
      "name": "withdraw",
      "outputs": [],
      "stateMutability": "nonpayable",
      "type": "function"
    }
  ],
  "bytecode": "608060405234801561001057600080fd5b50604051610b9b380380610b9b83398101604081905261002f91610070565b600080546001600160a01b0319166001600160a01b03831617905561005483426100b6565b60018190556100649083906100b6565b600255506100dc915050565b60008060006060848603121561008557600080fd5b83516020850151604086015191945092506001600160a01b03811681146100ab57600080fd5b809150509250925092565b600082198211156100d757634e487b7160e01b600052601160045260246000fd5b500190565b610ab0806100eb6000396000f3fe60806040526004361061009c5760003560e01c8063423b217f11610064578063423b217f14610169578063900f080a1461018d57806391f90157146101ad578063957bb1e0146101cd578063a6e66477146101e0578063d57bde79146101f657600080fd5b806301495c1c146100a157806312fa6feb146100db5780632a24f46c1461010557806338af3eed1461011c5780633ccfd60b14610154575b600080fd5b3480156100ad57600080fd5b506100c16100bc36600461081c565b61020c565b604080519283526020830191909152015b60405180910390f35b3480156100e757600080fd5b506003546100f59060ff1681565b60405190151581526020016100d2565b34801561011157600080fd5b5061011a610248565b005b34801561012857600080fd5b5060005461013c906001600160a01b031681565b6040516001600160a01b0390911681526020016100d2565b34801561016057600080fd5b5061011a61032d565b34801561017557600080fd5b5061017f60015481565b6040519081526020016100d2565b34801561019957600080fd5b5061011a6101a83660046108a0565b610381565b3480156101b957600080fd5b5060055461013c906001600160a01b031681565b61011a6101db36600461093a565b610639565b3480156101ec57600080fd5b5061017f60025481565b34801561020257600080fd5b5061017f60065481565b6004602052816000526040600020818154811061022857600080fd5b600091825260209091206002909102018054600190910154909250905082565b60025480421161027357604051630a8d68c960e21b8152600481018290526024015b60405180910390fd5b60035460ff161561029757604051630c39fb9f60e31b815260040160405180910390fd5b600554600654604080516001600160a01b03909316835260208301919091527fdaec4582d5d9595688c8c98545fdd1c696d41c6aeaeb636737e84ed2f5c00eda910160405180910390a16003805460ff19166001179055600080546006546040516001600160a01b039092169281156108fc029290818181858888f19350505050158015610329573d6000803e3d6000fd5b5050565b33600090815260076020526040902054801561037e57336000818152600760205260408082208290555183156108fc0291849190818181858888f19350505050158015610329573d6000803e3d6000fd5b50565b6001548042116103a757604051630a8d68c960e21b81526004810182905260240161026a565b6002548042106103cd5760405163348f2b4160e11b81526004810182905260240161026a565b336000908152600460205260409020548781146103e957600080fd5b8581146103f557600080fd5b83811461040157600080fd5b6000805b828110156105fe5733600090815260046020526040812080548390811061042e5761042e610953565b9060005260206000209060020201905060008060008e8e8681811061045557610455610953565b905060200201358d8d8781811061046e5761046e610953565b90506020020160208101906104839190610969565b8c8c8881811061049557610495610953565b905060200201359250925092506104e26040518060400160405280601a81526020017f56616c75653d25642c2066616b653d25732c207365637265743d00000000000081525084846106a6565b6104eb816106f2565b610513604051806040016040528060078152602001666b656363616b3d60c81b815250610737565b61055a83838360405160200161053f9392919092835290151560f81b6020830152602182015260410190565b604051602081830303815290604052805190602001206106f2565b60408051602080820186905284151560f81b828401526041808301859052835180840390910181526061909201909252805191012084541461059f57505050506105ec565b60018401546105ae90876109a8565b9550811580156105c2575082846001015410155b156105e3576105d1338461077a565b156105e3576105e083876109c0565b95505b50506000909155505b806105f6816109d7565b915050610405565b50604051339082156108fc029083906000818181858888f1935050505015801561062c573d6000803e3d6000fd5b5050505050505050505050565b60015480421061065f5760405163348f2b4160e11b81526004810182905260240161026a565b503360009081526004602090815260408083208151808301909252938152348183019081528454600181810187559585529290932090516002909202019081559051910155565b6106ed8383836040516024016106be93929190610a3d565b60408051601f198184030181529190526020810180516001600160e01b031663f102ee0560e01b1790526107fb565b505050565b61037e8160405160240161070891815260200190565b60408051601f198184030181529190526020810180516001600160e01b03166327b7cf8560e01b1790526107fb565b61037e8160405160240161074b9190610a67565b60408051601f198184030181529190526020810180516001600160e01b031663104c13eb60e21b1790526107fb565b6000600654821161078d575060006107f5565b6005546001600160a01b0316156107d1576006546005546001600160a01b0316600090815260076020526040812080549091906107cb9084906109a8565b90915550505b506006819055600580546001600160a01b0319166001600160a01b03841617905560015b92915050565b80516a636f6e736f6c652e6c6f67602083016000808483855afa5050505050565b6000806040838503121561082f57600080fd5b82356001600160a01b038116811461084657600080fd5b946020939093013593505050565b60008083601f84011261086657600080fd5b50813567ffffffffffffffff81111561087e57600080fd5b6020830191508360208260051b850101111561089957600080fd5b9250929050565b600080600080600080606087890312156108b957600080fd5b863567ffffffffffffffff808211156108d157600080fd5b6108dd8a838b01610854565b909850965060208901359150808211156108f657600080fd5b6109028a838b01610854565b9096509450604089013591508082111561091b57600080fd5b5061092889828a01610854565b979a9699509497509295939492505050565b60006020828403121561094c57600080fd5b5035919050565b634e487b7160e01b600052603260045260246000fd5b60006020828403121561097b57600080fd5b8135801515811461098b57600080fd5b9392505050565b634e487b7160e01b600052601160045260246000fd5b600082198211156109bb576109bb610992565b500190565b6000828210156109d2576109d2610992565b500390565b6000600182016109e9576109e9610992565b5060010190565b6000815180845260005b81811015610a16576020818501810151868301820152016109fa565b81811115610a28576000602083870101525b50601f01601f19169290920160200192915050565b606081526000610a5060608301866109f0565b602083019490945250901515604090910152919050565b60208152600061098b60208301846109f056fea26469706673582212200215f1ae9502335e1836f983dd98ca08d07b74d4d25d9cc9b886533bff81a4ca64736f6c634300080e0033",
  "bytecodeSha1": "378a1d0bab62814ba77a484f269e438e4bd0a53f",
  "compiler": {
    "evm_version": "istanbul",
    "optimizer": {
      "enabled": true,
      "runs": 200
    },
    "version": "0.8.14+commit.80d49f37"
  },
  "contractName": "BlindAuction",
  "language": "Solidity",
  "natspec": {
    "errors": {
      "AuctionEndAlreadyCalled()": [
        {
          "notice": "The function auctionEnd has already been called."
        }
      ],
      "TooEarly(uint256)": [
        {
          "notice": "The function has been called too early. Try again at `time`."
        }
      ],
      "TooLate(uint256)": [
        {
          "notice": "The function has been called too late. It cannot be called after `time`."
        }
      ]
    },
    "kind": "dev",
    "methods": {
      "auctionEnd()": {
        "notice": "End the auction and send the highest bid to the beneficiary."
      },
      "bid(bytes32)": {
        "notice": "Place a blinded bid with `blindedBid` = keccak256(abi.encodePacked(value, fake, secret)). The sent ether is only refunded if the bid is correctly revealed in the revealing phase. The bid is valid if the ether sent together with the bid is at least \"value\" and \"fake\" is not true. Setting \"fake\" to true and sending not the exact amount are ways to hide the real bid but still make the required deposit. The same address can place multiple bids."
      },
      "reveal(uint256[],bool[],bytes32[])": {
        "notice": "Reveal your blinded bids. You will get a refund for all correctly blinded invalid bids and for all bids except for the totally highest."
      },
      "withdraw()": {
        "notice": "Withdraw a bid that was overbid."
      }
    },
    "version": 1
  },
  "opcodes": "PUSH1 0x80 PUSH1 0x40 MSTORE PUSH1 0x4 CALLDATASIZE LT PUSH2 0x9C JUMPI PUSH1 0x0 CALLDATALOAD PUSH1 0xE0 SHR DUP1 PUSH4 0x423B217F GT PUSH2 0x64 JUMPI DUP1 PUSH4 0x423B217F EQ PUSH2 0x169 JUMPI DUP1 PUSH4 0x900F080A EQ PUSH2 0x18D JUMPI DUP1 PUSH4 0x91F90157 EQ PUSH2 0x1AD JUMPI DUP1 PUSH4 0x957BB1E0 EQ PUSH2 0x1CD JUMPI DUP1 PUSH4 0xA6E66477 EQ PUSH2 0x1E0 JUMPI DUP1 PUSH4 0xD57BDE79 EQ PUSH2 0x1F6 JUMPI PUSH1 0x0 DUP1 REVERT JUMPDEST DUP1 PUSH4 0x1495C1C EQ PUSH2 0xA1 JUMPI DUP1 PUSH4 0x12FA6FEB EQ PUSH2 0xDB JUMPI DUP1 PUSH4 0x2A24F46C EQ PUSH2 0x105 JUMPI DUP1 PUSH4 0x38AF3EED EQ PUSH2 0x11C JUMPI DUP1 PUSH4 0x3CCFD60B EQ PUSH2 0x154 JUMPI JUMPDEST PUSH1 0x0 DUP1 REVERT JUMPDEST CALLVALUE DUP1 ISZERO PUSH2 0xAD JUMPI PUSH1 0x0 DUP1 REVERT JUMPDEST POP PUSH2 0xC1 PUSH2 0xBC CALLDATASIZE PUSH1 0x4 PUSH2 0x81C JUMP JUMPDEST PUSH2 0x20C JUMP JUMPDEST PUSH1 0x40 DUP1 MLOAD SWAP3 DUP4 MSTORE PUSH1 0x20 DUP4 ADD SWAP2 SWAP1 SWAP2 MSTORE ADD JUMPDEST PUSH1 0x40 MLOAD DUP1 SWAP2 SUB SWAP1 RETURN JUMPDEST CALLVALUE DUP1 ISZERO PUSH2 0xE7 JUMPI PUSH1 0x0 DUP1 REVERT JUMPDEST POP PUSH1 0x3 SLOAD PUSH2 0xF5 SWAP1 PUSH1 0xFF AND DUP2 JUMP JUMPDEST PUSH1 0x40 MLOAD SWAP1 ISZERO ISZERO DUP2 MSTORE PUSH1 0x20 ADD PUSH2 0xD2 JUMP JUMPDEST CALLVALUE DUP1 ISZERO PUSH2 0x111 JUMPI PUSH1 0x0 DUP1 REVERT JUMPDEST POP PUSH2 0x11A PUSH2 0x248 JUMP JUMPDEST STOP JUMPDEST CALLVALUE DUP1 ISZERO PUSH2 0x128 JUMPI PUSH1 0x0 DUP1 REVERT JUMPDEST POP PUSH1 0x0 SLOAD PUSH2 0x13C SWAP1 PUSH1 0x1 PUSH1 0x1 PUSH1 0xA0 SHL SUB AND DUP2 JUMP JUMPDEST PUSH1 0x40 MLOAD PUSH1 0x1 PUSH1 0x1 PUSH1 0xA0 SHL SUB SWAP1 SWAP2 AND DUP2 MSTORE PUSH1 0x20 ADD PUSH2 0xD2 JUMP JUMPDEST CALLVALUE DUP1 ISZERO PUSH2 0x160 JUMPI PUSH1 0x0 DUP1 REVERT JUMPDEST POP PUSH2 0x11A PUSH2 0x32D JUMP JUMPDEST CALLVALUE DUP1 ISZERO PUSH2 0x175 JUMPI PUSH1 0x0 DUP1 REVERT JUMPDEST POP PUSH2 0x17F PUSH1 0x1 SLOAD DUP2 JUMP JUMPDEST PUSH1 0x40 MLOAD SWAP1 DUP2 MSTORE PUSH1 0x20 ADD PUSH2 0xD2 JUMP JUMPDEST CALLVALUE DUP1 ISZERO PUSH2 0x199 JUMPI PUSH1 0x0 DUP1 REVERT JUMPDEST POP PUSH2 0x11A PUSH2 0x1A8 CALLDATASIZE PUSH1 0x4 PUSH2 0x8A0 JUMP JUMPDEST PUSH2 0x381 JUMP JUMPDEST CALLVALUE DUP1 ISZERO PUSH2 0x1B9 JUMPI PUSH1 0x0 DUP1 REVERT JUMPDEST POP PUSH1 0x5 SLOAD PUSH2 0x13C SWAP1 PUSH1 0x1 PUSH1 0x1 PUSH1 0xA0 SHL SUB AND DUP2 JUMP JUMPDEST PUSH2 0x11A PUSH2 0x1DB CALLDATASIZE PUSH1 0x4 PUSH2 0x93A JUMP JUMPDEST PUSH2 0x639 JUMP JUMPDEST CALLVALUE DUP1 ISZERO PUSH2 0x1EC JUMPI PUSH1 0x0 DUP1 REVERT JUMPDEST POP PUSH2 0x17F PUSH1 0x2 SLOAD DUP2 JUMP JUMPDEST CALLVALUE DUP1 ISZERO PUSH2 0x202 JUMPI PUSH1 0x0 DUP1 REVERT JUMPDEST POP PUSH2 0x17F PUSH1 0x6 SLOAD DUP2 JUMP JUMPDEST PUSH1 0x4 PUSH1 0x20 MSTORE DUP2 PUSH1 0x0 MSTORE PUSH1 0x40 PUSH1 0x0 KECCAK256 DUP2 DUP2 SLOAD DUP2 LT PUSH2 0x228 JUMPI PUSH1 0x0 DUP1 REVERT JUMPDEST PUSH1 0x0 SWAP2 DUP3 MSTORE PUSH1 0x20 SWAP1 SWAP2 KECCAK256 PUSH1 0x2 SWAP1 SWAP2 MUL ADD DUP1 SLOAD PUSH1 0x1 SWAP1 SWAP2 ADD SLOAD SWAP1 SWAP3 POP SWAP1 POP DUP3 JUMP JUMPDEST PUSH1 0x2 SLOAD DUP1 TIMESTAMP GT PUSH2 0x273 JUMPI PUSH1 0x40 MLOAD PUSH4 0xA8D68C9 PUSH1 0xE2 SHL DUP2 MSTORE PUSH1 0x4 DUP2 ADD DUP3 SWAP1 MSTORE PUSH1 0x24 ADD JUMPDEST PUSH1 0x40 MLOAD DUP1 SWAP2 SUB SWAP1 REVERT JUMPDEST PUSH1 0x3 SLOAD PUSH1 0xFF AND ISZERO PUSH2 0x297 JUMPI PUSH1 0x40 MLOAD PUSH4 0xC39FB9F PUSH1 0xE3 SHL DUP2 MSTORE PUSH1 0x4 ADD PUSH1 0x40 MLOAD DUP1 SWAP2 SUB SWAP1 REVERT JUMPDEST PUSH1 0x5 SLOAD PUSH1 0x6 SLOAD PUSH1 0x40 DUP1 MLOAD PUSH1 0x1 PUSH1 0x1 PUSH1 0xA0 SHL SUB SWAP1 SWAP4 AND DUP4 MSTORE PUSH1 0x20 DUP4 ADD SWAP2 SWAP1 SWAP2 MSTORE PUSH32 0xDAEC4582D5D9595688C8C98545FDD1C696D41C6AEAEB636737E84ED2F5C00EDA SWAP2 ADD PUSH1 0x40 MLOAD DUP1 SWAP2 SUB SWAP1 LOG1 PUSH1 0x3 DUP1 SLOAD PUSH1 0xFF NOT AND PUSH1 0x1 OR SWAP1 SSTORE PUSH1 0x0 DUP1 SLOAD PUSH1 0x6 SLOAD PUSH1 0x40 MLOAD PUSH1 0x1 PUSH1 0x1 PUSH1 0xA0 SHL SUB SWAP1 SWAP3 AND SWAP3 DUP2 ISZERO PUSH2 0x8FC MUL SWAP3 SWAP1 DUP2 DUP2 DUP2 DUP6 DUP9 DUP9 CALL SWAP4 POP POP POP POP ISZERO DUP1 ISZERO PUSH2 0x329 JUMPI RETURNDATASIZE PUSH1 0x0 DUP1 RETURNDATACOPY RETURNDATASIZE PUSH1 0x0 REVERT JUMPDEST POP POP JUMP JUMPDEST CALLER PUSH1 0x0 SWAP1 DUP2 MSTORE PUSH1 0x7 PUSH1 0x20 MSTORE PUSH1 0x40 SWAP1 KECCAK256 SLOAD DUP1 ISZERO PUSH2 0x37E JUMPI CALLER PUSH1 0x0 DUP2 DUP2 MSTORE PUSH1 0x7 PUSH1 0x20 MSTORE PUSH1 0x40 DUP1 DUP3 KECCAK256 DUP3 SWAP1 SSTORE MLOAD DUP4 ISZERO PUSH2 0x8FC MUL SWAP2 DUP5 SWAP2 SWAP1 DUP2 DUP2 DUP2 DUP6 DUP9 DUP9 CALL SWAP4 POP POP POP POP ISZERO DUP1 ISZERO PUSH2 0x329 JUMPI RETURNDATASIZE PUSH1 0x0 DUP1 RETURNDATACOPY RETURNDATASIZE PUSH1 0x0 REVERT JUMPDEST POP JUMP JUMPDEST PUSH1 0x1 SLOAD DUP1 TIMESTAMP GT PUSH2 0x3A7 JUMPI PUSH1 0x40 MLOAD PUSH4 0xA8D68C9 PUSH1 0xE2 SHL DUP2 MSTORE PUSH1 0x4 DUP2 ADD DUP3 SWAP1 MSTORE PUSH1 0x24 ADD PUSH2 0x26A JUMP JUMPDEST PUSH1 0x2 SLOAD DUP1 TIMESTAMP LT PUSH2 0x3CD JUMPI PUSH1 0x40 MLOAD PUSH4 0x348F2B41 PUSH1 0xE1 SHL DUP2 MSTORE PUSH1 0x4 DUP2 ADD DUP3 SWAP1 MSTORE PUSH1 0x24 ADD PUSH2 0x26A JUMP JUMPDEST CALLER PUSH1 0x0 SWAP1 DUP2 MSTORE PUSH1 0x4 PUSH1 0x20 MSTORE PUSH1 0x40 SWAP1 KECCAK256 SLOAD DUP8 DUP2 EQ PUSH2 0x3E9 JUMPI PUSH1 0x0 DUP1 REVERT JUMPDEST DUP6 DUP2 EQ PUSH2 0x3F5 JUMPI PUSH1 0x0 DUP1 REVERT JUMPDEST DUP4 DUP2 EQ PUSH2 0x401 JUMPI PUSH1 0x0 DUP1 REVERT JUMPDEST PUSH1 0x0 DUP1 JUMPDEST DUP3 DUP2 LT ISZERO PUSH2 0x5FE JUMPI CALLER PUSH1 0x0 SWAP1 DUP2 MSTORE PUSH1 0x4 PUSH1 0x20 MSTORE PUSH1 0x40 DUP2 KECCAK256 DUP1 SLOAD DUP4 SWAP1 DUP2 LT PUSH2 0x42E JUMPI PUSH2 0x42E PUSH2 0x953 JUMP JUMPDEST SWAP1 PUSH1 0x0 MSTORE PUSH1 0x20 PUSH1 0x0 KECCAK256 SWAP1 PUSH1 0x2 MUL ADD SWAP1 POP PUSH1 0x0 DUP1 PUSH1 0x0 DUP15 DUP15 DUP7 DUP2 DUP2 LT PUSH2 0x455 JUMPI PUSH2 0x455 PUSH2 0x953 JUMP JUMPDEST SWAP1 POP PUSH1 0x20 MUL ADD CALLDATALOAD DUP14 DUP14 DUP8 DUP2 DUP2 LT PUSH2 0x46E JUMPI PUSH2 0x46E PUSH2 0x953 JUMP JUMPDEST SWAP1 POP PUSH1 0x20 MUL ADD PUSH1 0x20 DUP2 ADD SWAP1 PUSH2 0x483 SWAP2 SWAP1 PUSH2 0x969 JUMP JUMPDEST DUP13 DUP13 DUP9 DUP2 DUP2 LT PUSH2 0x495 JUMPI PUSH2 0x495 PUSH2 0x953 JUMP JUMPDEST SWAP1 POP PUSH1 0x20 MUL ADD CALLDATALOAD SWAP3 POP SWAP3 POP SWAP3 POP PUSH2 0x4E2 PUSH1 0x40 MLOAD DUP1 PUSH1 0x40 ADD PUSH1 0x40 MSTORE DUP1 PUSH1 0x1A DUP2 MSTORE PUSH1 0x20 ADD PUSH32 0x56616C75653D25642C2066616B653D25732C207365637265743D000000000000 DUP2 MSTORE POP DUP5 DUP5 PUSH2 0x6A6 JUMP JUMPDEST PUSH2 0x4EB DUP2 PUSH2 0x6F2 JUMP JUMPDEST PUSH2 0x513 PUSH1 0x40 MLOAD DUP1 PUSH1 0x40 ADD PUSH1 0x40 MSTORE DUP1 PUSH1 0x7 DUP2 MSTORE PUSH1 0x20 ADD PUSH7 0x6B656363616B3D PUSH1 0xC8 SHL DUP2 MSTORE POP PUSH2 0x737 JUMP JUMPDEST PUSH2 0x55A DUP4 DUP4 DUP4 PUSH1 0x40 MLOAD PUSH1 0x20 ADD PUSH2 0x53F SWAP4 SWAP3 SWAP2 SWAP1 SWAP3 DUP4 MSTORE SWAP1 ISZERO ISZERO PUSH1 0xF8 SHL PUSH1 0x20 DUP4 ADD MSTORE PUSH1 0x21 DUP3 ADD MSTORE PUSH1 0x41 ADD SWAP1 JUMP JUMPDEST PUSH1 0x40 MLOAD PUSH1 0x20 DUP2 DUP4 SUB SUB DUP2 MSTORE SWAP1 PUSH1 0x40 MSTORE DUP1 MLOAD SWAP1 PUSH1 0x20 ADD KECCAK256 PUSH2 0x6F2 JUMP JUMPDEST PUSH1 0x40 DUP1 MLOAD PUSH1 0x20 DUP1 DUP3 ADD DUP7 SWAP1 MSTORE DUP5 ISZERO ISZERO PUSH1 0xF8 SHL DUP3 DUP5 ADD MSTORE PUSH1 0x41 DUP1 DUP4 ADD DUP6 SWAP1 MSTORE DUP4 MLOAD DUP1 DUP5 SUB SWAP1 SWAP2 ADD DUP2 MSTORE PUSH1 0x61 SWAP1 SWAP3 ADD SWAP1 SWAP3 MSTORE DUP1 MLOAD SWAP2 ADD KECCAK256 DUP5 SLOAD EQ PUSH2 0x59F JUMPI POP POP POP POP PUSH2 0x5EC JUMP JUMPDEST PUSH1 0x1 DUP5 ADD SLOAD PUSH2 0x5AE SWAP1 DUP8 PUSH2 0x9A8 JUMP JUMPDEST SWAP6 POP DUP2 ISZERO DUP1 ISZERO PUSH2 0x5C2 JUMPI POP DUP3 DUP5 PUSH1 0x1 ADD SLOAD LT ISZERO JUMPDEST ISZERO PUSH2 0x5E3 JUMPI PUSH2 0x5D1 CALLER DUP5 PUSH2 0x77A JUMP JUMPDEST ISZERO PUSH2 0x5E3 JUMPI PUSH2 0x5E0 DUP4 DUP8 PUSH2 0x9C0 JUMP JUMPDEST SWAP6 POP JUMPDEST POP POP PUSH1 0x0 SWAP1 SWAP2 SSTORE POP JUMPDEST DUP1 PUSH2 0x5F6 DUP2 PUSH2 0x9D7 JUMP JUMPDEST SWAP2 POP POP PUSH2 0x405 JUMP JUMPDEST POP PUSH1 0x40 MLOAD CALLER SWAP1 DUP3 ISZERO PUSH2 0x8FC MUL SWAP1 DUP4 SWAP1 PUSH1 0x0 DUP2 DUP2 DUP2 DUP6 DUP9 DUP9 CALL SWAP4 POP POP POP POP ISZERO DUP1 ISZERO PUSH2 0x62C JUMPI RETURNDATASIZE PUSH1 0x0 DUP1 RETURNDATACOPY RETURNDATASIZE PUSH1 0x0 REVERT JUMPDEST POP POP POP POP POP POP POP POP POP POP POP JUMP JUMPDEST PUSH1 0x1 SLOAD DUP1 TIMESTAMP LT PUSH2 0x65F JUMPI PUSH1 0x40 MLOAD PUSH4 0x348F2B41 PUSH1 0xE1 SHL DUP2 MSTORE PUSH1 0x4 DUP2 ADD DUP3 SWAP1 MSTORE PUSH1 0x24 ADD PUSH2 0x26A JUMP JUMPDEST POP CALLER PUSH1 0x0 SWAP1 DUP2 MSTORE PUSH1 0x4 PUSH1 0x20 SWAP1 DUP2 MSTORE PUSH1 0x40 DUP1 DUP4 KECCAK256 DUP2 MLOAD DUP1 DUP4 ADD SWAP1 SWAP3 MSTORE SWAP4 DUP2 MSTORE CALLVALUE DUP2 DUP4 ADD SWAP1 DUP2 MSTORE DUP5 SLOAD PUSH1 0x1 DUP2 DUP2 ADD DUP8 SSTORE SWAP6 DUP6 MSTORE SWAP3 SWAP1 SWAP4 KECCAK256 SWAP1 MLOAD PUSH1 0x2 SWAP1 SWAP3 MUL ADD SWAP1 DUP2 SSTORE SWAP1 MLOAD SWAP2 ADD SSTORE JUMP JUMPDEST PUSH2 0x6ED DUP4 DUP4 DUP4 PUSH1 0x40 MLOAD PUSH1 0x24 ADD PUSH2 0x6BE SWAP4 SWAP3 SWAP2 SWAP1 PUSH2 0xA3D JUMP JUMPDEST PUSH1 0x40 DUP1 MLOAD PUSH1 0x1F NOT DUP2 DUP5 SUB ADD DUP2 MSTORE SWAP2 SWAP1 MSTORE PUSH1 0x20 DUP2 ADD DUP1 MLOAD PUSH1 0x1 PUSH1 0x1 PUSH1 0xE0 SHL SUB AND PUSH4 0xF102EE05 PUSH1 0xE0 SHL OR SWAP1 MSTORE PUSH2 0x7FB JUMP JUMPDEST POP POP POP JUMP JUMPDEST PUSH2 0x37E DUP2 PUSH1 0x40 MLOAD PUSH1 0x24 ADD PUSH2 0x708 SWAP2 DUP2 MSTORE PUSH1 0x20 ADD SWAP1 JUMP JUMPDEST PUSH1 0x40 DUP1 MLOAD PUSH1 0x1F NOT DUP2 DUP5 SUB ADD DUP2 MSTORE SWAP2 SWAP1 MSTORE PUSH1 0x20 DUP2 ADD DUP1 MLOAD PUSH1 0x1 PUSH1 0x1 PUSH1 0xE0 SHL SUB AND PUSH4 0x27B7CF85 PUSH1 0xE0 SHL OR SWAP1 MSTORE PUSH2 0x7FB JUMP JUMPDEST PUSH2 0x37E DUP2 PUSH1 0x40 MLOAD PUSH1 0x24 ADD PUSH2 0x74B SWAP2 SWAP1 PUSH2 0xA67 JUMP JUMPDEST PUSH1 0x40 DUP1 MLOAD PUSH1 0x1F NOT DUP2 DUP5 SUB ADD DUP2 MSTORE SWAP2 SWAP1 MSTORE PUSH1 0x20 DUP2 ADD DUP1 MLOAD PUSH1 0x1 PUSH1 0x1 PUSH1 0xE0 SHL SUB AND PUSH4 0x104C13EB PUSH1 0xE2 SHL OR SWAP1 MSTORE PUSH2 0x7FB JUMP JUMPDEST PUSH1 0x0 PUSH1 0x6 SLOAD DUP3 GT PUSH2 0x78D JUMPI POP PUSH1 0x0 PUSH2 0x7F5 JUMP JUMPDEST PUSH1 0x5 SLOAD PUSH1 0x1 PUSH1 0x1 PUSH1 0xA0 SHL SUB AND ISZERO PUSH2 0x7D1 JUMPI PUSH1 0x6 SLOAD PUSH1 0x5 SLOAD PUSH1 0x1 PUSH1 0x1 PUSH1 0xA0 SHL SUB AND PUSH1 0x0 SWAP1 DUP2 MSTORE PUSH1 0x7 PUSH1 0x20 MSTORE PUSH1 0x40 DUP2 KECCAK256 DUP1 SLOAD SWAP1 SWAP2 SWAP1 PUSH2 0x7CB SWAP1 DUP5 SWAP1 PUSH2 0x9A8 JUMP JUMPDEST SWAP1 SWAP2 SSTORE POP POP JUMPDEST POP PUSH1 0x6 DUP2 SWAP1 SSTORE PUSH1 0x5 DUP1 SLOAD PUSH1 0x1 PUSH1 0x1 PUSH1 0xA0 SHL SUB NOT AND PUSH1 0x1 PUSH1 0x1 PUSH1 0xA0 SHL SUB DUP5 AND OR SWAP1 SSTORE PUSH1 0x1 JUMPDEST SWAP3 SWAP2 POP POP JUMP JUMPDEST DUP1 MLOAD PUSH11 0x636F6E736F6C652E6C6F67 PUSH1 0x20 DUP4 ADD PUSH1 0x0 DUP1 DUP5 DUP4 DUP6 GAS STATICCALL POP POP POP POP POP JUMP JUMPDEST PUSH1 0x0 DUP1 PUSH1 0x40 DUP4 DUP6 SUB SLT ISZERO PUSH2 0x82F JUMPI PUSH1 0x0 DUP1 REVERT JUMPDEST DUP3 CALLDATALOAD PUSH1 0x1 PUSH1 0x1 PUSH1 0xA0 SHL SUB DUP2 AND DUP2 EQ PUSH2 0x846 JUMPI PUSH1 0x0 DUP1 REVERT JUMPDEST SWAP5 PUSH1 0x20 SWAP4 SWAP1 SWAP4 ADD CALLDATALOAD SWAP4 POP POP POP JUMP JUMPDEST PUSH1 0x0 DUP1 DUP4 PUSH1 0x1F DUP5 ADD SLT PUSH2 0x866 JUMPI PUSH1 0x0 DUP1 REVERT JUMPDEST POP DUP2 CALLDATALOAD PUSH8 0xFFFFFFFFFFFFFFFF DUP2 GT ISZERO PUSH2 0x87E JUMPI PUSH1 0x0 DUP1 REVERT JUMPDEST PUSH1 0x20 DUP4 ADD SWAP2 POP DUP4 PUSH1 0x20 DUP3 PUSH1 0x5 SHL DUP6 ADD ADD GT ISZERO PUSH2 0x899 JUMPI PUSH1 0x0 DUP1 REVERT JUMPDEST SWAP3 POP SWAP3 SWAP1 POP JUMP JUMPDEST PUSH1 0x0 DUP1 PUSH1 0x0 DUP1 PUSH1 0x0 DUP1 PUSH1 0x60 DUP8 DUP10 SUB SLT ISZERO PUSH2 0x8B9 JUMPI PUSH1 0x0 DUP1 REVERT JUMPDEST DUP7 CALLDATALOAD PUSH8 0xFFFFFFFFFFFFFFFF DUP1 DUP3 GT ISZERO PUSH2 0x8D1 JUMPI PUSH1 0x0 DUP1 REVERT JUMPDEST PUSH2 0x8DD DUP11 DUP4 DUP12 ADD PUSH2 0x854 JUMP JUMPDEST SWAP1 SWAP9 POP SWAP7 POP PUSH1 0x20 DUP10 ADD CALLDATALOAD SWAP2 POP DUP1 DUP3 GT ISZERO PUSH2 0x8F6 JUMPI PUSH1 0x0 DUP1 REVERT JUMPDEST PUSH2 0x902 DUP11 DUP4 DUP12 ADD PUSH2 0x854 JUMP JUMPDEST SWAP1 SWAP7 POP SWAP5 POP PUSH1 0x40 DUP10 ADD CALLDATALOAD SWAP2 POP DUP1 DUP3 GT ISZERO PUSH2 0x91B JUMPI PUSH1 0x0 DUP1 REVERT JUMPDEST POP PUSH2 0x928 DUP10 DUP3 DUP11 ADD PUSH2 0x854 JUMP JUMPDEST SWAP8 SWAP11 SWAP7 SWAP10 POP SWAP5 SWAP8 POP SWAP3 SWAP6 SWAP4 SWAP5 SWAP3 POP POP POP JUMP JUMPDEST PUSH1 0x0 PUSH1 0x20 DUP3 DUP5 SUB SLT ISZERO PUSH2 0x94C JUMPI PUSH1 0x0 DUP1 REVERT JUMPDEST POP CALLDATALOAD SWAP2 SWAP1 POP JUMP JUMPDEST PUSH4 0x4E487B71 PUSH1 0xE0 SHL PUSH1 0x0 MSTORE PUSH1 0x32 PUSH1 0x4 MSTORE PUSH1 0x24 PUSH1 0x0 REVERT JUMPDEST PUSH1 0x0 PUSH1 0x20 DUP3 DUP5 SUB SLT ISZERO PUSH2 0x97B JUMPI PUSH1 0x0 DUP1 REVERT JUMPDEST DUP2 CALLDATALOAD DUP1 ISZERO ISZERO DUP2 EQ PUSH2 0x98B JUMPI PUSH1 0x0 DUP1 REVERT JUMPDEST SWAP4 SWAP3 POP POP POP JUMP JUMPDEST PUSH4 0x4E487B71 PUSH1 0xE0 SHL PUSH1 0x0 MSTORE PUSH1 0x11 PUSH1 0x4 MSTORE PUSH1 0x24 PUSH1 0x0 REVERT JUMPDEST PUSH1 0x0 DUP3 NOT DUP3 GT ISZERO PUSH2 0x9BB JUMPI PUSH2 0x9BB PUSH2 0x992 JUMP JUMPDEST POP ADD SWAP1 JUMP JUMPDEST PUSH1 0x0 DUP3 DUP3 LT ISZERO PUSH2 0x9D2 JUMPI PUSH2 0x9D2 PUSH2 0x992 JUMP JUMPDEST POP SUB SWAP1 JUMP JUMPDEST PUSH1 0x0 PUSH1 0x1 DUP3 ADD PUSH2 0x9E9 JUMPI PUSH2 0x9E9 PUSH2 0x992 JUMP JUMPDEST POP PUSH1 0x1 ADD SWAP1 JUMP JUMPDEST PUSH1 0x0 DUP2 MLOAD DUP1 DUP5 MSTORE PUSH1 0x0 JUMPDEST DUP2 DUP2 LT ISZERO PUSH2 0xA16 JUMPI PUSH1 0x20 DUP2 DUP6 ADD DUP2 ADD MLOAD DUP7 DUP4 ADD DUP3 ADD MSTORE ADD PUSH2 0x9FA JUMP JUMPDEST DUP2 DUP2 GT ISZERO PUSH2 0xA28 JUMPI PUSH1 0x0 PUSH1 0x20 DUP4 DUP8 ADD ADD MSTORE JUMPDEST POP PUSH1 0x1F ADD PUSH1 0x1F NOT AND SWAP3 SWAP1 SWAP3 ADD PUSH1 0x20 ADD SWAP3 SWAP2 POP POP JUMP JUMPDEST PUSH1 0x60 DUP2 MSTORE PUSH1 0x0 PUSH2 0xA50 PUSH1 0x60 DUP4 ADD DUP7 PUSH2 0x9F0 JUMP JUMPDEST PUSH1 0x20 DUP4 ADD SWAP5 SWAP1 SWAP5 MSTORE POP SWAP1 ISZERO ISZERO PUSH1 0x40 SWAP1 SWAP2 ADD MSTORE SWAP2 SWAP1 POP JUMP JUMPDEST PUSH1 0x20 DUP2 MSTORE PUSH1 0x0 PUSH2 0x98B PUSH1 0x20 DUP4 ADD DUP5 PUSH2 0x9F0 JUMP INVALID LOG2 PUSH5 0x6970667358 0x22 SLT KECCAK256 MUL ISZERO CALL 0xAE SWAP6 MUL CALLER 0x5E XOR CALLDATASIZE 0xF9 DUP4 0xDD SWAP9 0xCA ADDMOD 0xD0 PUSH28 0x74D4D25D9CC9B886533BFF81A4CA64736F6C634300080E0033000000 ",
  "sha1": "5117d2e10ccb50f36259f170b9b6e321b949b927",
  "source": "// SPDX-License-Identifier: GPL-3.0\npragma solidity 0.8.14;\nimport \"./console.sol\";\n\ncontract BlindAuction {\n    struct Bid {\n        bytes32 blindedBid;\n        uint256 deposit;\n    }\n\n    address payable public beneficiary;\n    uint256 public biddingEnd;\n    uint256 public revealEnd;\n    bool public ended;\n\n    mapping(address => Bid[]) public bids;\n\n    address public highestBidder;\n    uint256 public highestBid;\n\n    // Allowed withdrawals of previous bids\n    mapping(address => uint256) pendingReturns;\n\n    event AuctionEnded(address winner, uint256 highestBid);\n\n    // Errors that describe failures.\n\n    /// The function has been called too early.\n    /// Try again at `time`.\n    error TooEarly(uint256 time);\n    /// The function has been called too late.\n    /// It cannot be called after `time`.\n    error TooLate(uint256 time);\n    /// The function auctionEnd has already been called.\n    error AuctionEndAlreadyCalled();\n\n    // Modifiers are a convenient way to validate inputs to\n    // functions. `onlyBefore` is applied to `bid` below:\n    // The new function body is the modifier's body where\n    // `_` is replaced by the old function body.\n    modifier onlyBefore(uint256 time) {\n        if (block.timestamp >= time) revert TooLate(time);\n        _;\n    }\n    modifier onlyAfter(uint256 time) {\n        if (block.timestamp <= time) revert TooEarly(time);\n        _;\n    }\n\n    constructor(\n        uint256 biddingTime,\n        uint256 revealTime,\n        address payable beneficiaryAddress\n    ) {\n        beneficiary = beneficiaryAddress;\n        biddingEnd = block.timestamp + biddingTime;\n        revealEnd = biddingEnd + revealTime;\n    }\n\n    /// Place a blinded bid with `blindedBid` =\n    /// keccak256(abi.encodePacked(value, fake, secret)).\n    /// The sent ether is only refunded if the bid is correctly\n    /// revealed in the revealing phase. The bid is valid if the\n    /// ether sent together with the bid is at least \"value\" and\n    /// \"fake\" is not true. Setting \"fake\" to true and sending\n    /// not the exact amount are ways to hide the real bid but\n    /// still make the required deposit. The same address can\n    /// place multiple bids.\n    function bid(bytes32 blindedBid) external payable onlyBefore(biddingEnd) {\n        bids[msg.sender].push(\n            Bid({blindedBid: blindedBid, deposit: msg.value})\n        );\n    }\n\n    /// Reveal your blinded bids. You will get a refund for all\n    /// correctly blinded invalid bids and for all bids except for\n    /// the totally highest.\n    function reveal(\n        uint256[] calldata values,\n        bool[] calldata fakes,\n        bytes32[] calldata secrets\n    ) external onlyAfter(biddingEnd) onlyBefore(revealEnd) {\n        uint256 length = bids[msg.sender].length;\n        require(values.length == length);\n        require(fakes.length == length);\n        require(secrets.length == length);\n\n        uint256 refund;\n        for (uint256 i = 0; i < length; i++) {\n            Bid storage bidToCheck = bids[msg.sender][i];\n            (uint256 value, bool fake, bytes32 secret) = (\n                values[i],\n                fakes[i],\n                secrets[i]\n            );\n            console.log(\"Value=%d, fake=%s, secret=\",value,fake);\n            console.logBytes32(secret);\n            console.log(\"keccak=\");\n            console.logBytes32(keccak256(abi.encodePacked(value, fake, secret)));\n            if (\n                bidToCheck.blindedBid !=\n                keccak256(abi.encodePacked(value, fake, secret))\n            ) {\n                // Bid was not actually revealed.\n                // Do not refund deposit.\n                continue;\n            }\n            refund += bidToCheck.deposit;\n            if (!fake && bidToCheck.deposit >= value) {\n                if (placeBid(msg.sender, value)) refund -= value;\n            }\n            // Make it impossible for the sender to re-claim\n            // the same deposit.\n            bidToCheck.blindedBid = bytes32(0);\n        }\n        payable(msg.sender).transfer(refund);\n    }\n\n    /// Withdraw a bid that was overbid.\n    function withdraw() external {\n        uint256 amount = pendingReturns[msg.sender];\n        if (amount > 0) {\n            // It is important to set this to zero because the recipient\n            // can call this function again as part of the receiving call\n            // before `transfer` returns (see the remark above about\n            // conditions -> effects -> interaction).\n            pendingReturns[msg.sender] = 0;\n\n            payable(msg.sender).transfer(amount);\n        }\n    }\n\n    /// End the auction and send the highest bid\n    /// to the beneficiary.\n    function auctionEnd() external onlyAfter(revealEnd) {\n        if (ended) revert AuctionEndAlreadyCalled();\n        emit AuctionEnded(highestBidder, highestBid);\n        ended = true;\n        beneficiary.transfer(highestBid);\n    }\n\n    // This is an \"internal\" function which means that it\n    // can only be called from the contract itself (or from\n    // derived contracts).\n    function placeBid(address bidder, uint256 value)\n        internal\n        returns (bool success)\n    {\n        if (value <= highestBid) {\n            return false;\n        }\n        if (highestBidder != address(0)) {\n            // Refund the previously highest bidder.\n            pendingReturns[highestBidder] += highestBid;\n        }\n        highestBid = value;\n        highestBidder = bidder;\n        return true;\n    }\n}\n",
  "sourcePath": "contracts/BlindAuction.sol",
  "type": "contract"
}